:020000040800F2
:100000003008002065010008911700082911000838
:1000100000000000000000000000000000000000E0
:10002000000000000000000000000000951700081C
:10003000000000000000000093170008D11700081E
:100040007701000800000000770100087701000830
:1000500077010008770100087701000877010008A0
:100060000000000077010008770100087701000810
:100070007701000877010008770100080000000000
:10008000770100080000000000000000451800088B
:1000900000000000770100089119000877010008AE
:1000A0007701000877010008770100087701000850
:1000B00077010008000000000000000000000000C0
:1000C00000F002F800F03EF80CA030C80838241800
:1000D0002D18A246671EAB4654465D46AC4201D180
:1000E00000F030F87E460F3E0FCCB6460126334274
:1000F00000D0FB1AA246AB4633431847E81C000069
:10010000081D0000103A02D378C878C1FAD8520707
:1001100001D330C830C101D504680C6070470000BD
:100120000023002400250026103A01D378C1FBD813
:10013000520700D330C100D50B6070471FB51FBDFB
:1001400010B510BD00F057F91146FFF7F7FF01F0A9
:100150000DFD00F06FF903B4FFF7F2FF03BC00F0F0
:1001600075F900000748804707480047FEE7FEE7AB
:10017000FEE7FEE7FEE7FEE704480549054A064BB1
:100180007047000041180008C1000008300200203C
:100190003008002030040020300400200FB41CB5CB
:1001A000084B06AA7B4469460090059800F0F9F8D0
:1001B00004460020694600F007F920461CBC08BC34
:1001C00004B018472102000001E004C0091F0429FF
:1001D000FBD28B0701D50280801CC90700D00270BA
:1001E000704700290BD0C30702D00270401C491E83
:1001F000022904D3830702D50280801C891EE3E70D
:100200000022EEE70022DFE7002203098B422CD315
:10021000030A8B4211D300239C464EE003460B4356
:100220003CD4002243088B4231D303098B421CD3B8
:10023000030A8B4201D394463FE0C3098B4201D3AA
:10024000CB01C01A524183098B4201D38B01C01AE2
:10025000524143098B4201D34B01C01A5241030959
:100260008B4201D30B01C01A5241C3088B4201D308
:10027000CB00C01A524183088B4201D38B00C01AB5
:10028000524143088B4201D34B00C01A5241411ADC
:1002900000D201465241104670475DE0CA0F00D0BF
:1002A0004942031000D34042534000229C460309B8
:1002B0008B422DD3030A8B4212D3FC22890112BA3E
:1002C000030A8B420CD3890192118B4208D3890116
:1002D00092118B4204D389013AD0921100E089092E
:1002E000C3098B4201D3CB01C01A524183098B420F
:1002F00001D38B01C01A524143098B4201D34B01F8
:10030000C01A524103098B4201D30B01C01A52415A
:10031000C3088B4201D3CB00C01A524183088B42E1
:1003200001D38B00C01A5241D9D243088B4201D36A
:100330004B00C01A5241411A00D201466346524155
:100340005B10104601D34042002B00D54942704754
:1003500063465B1000D3404201B50020C046C04652
:1003600002BD7047704770470102C21504D00123D7
:10037000DB071943002A0ADB9E239A1A02D4084697
:10038000D0407047FF2241001206914201D900205F
:100390007047C017C043704701694A1C0261087862
:1003A000704700B58FB00291002105910549019376
:1003B0007944039111460490684600F00AF80FB0A2
:1003C00000BD0000E5FFFFFF0A681070521C0A60C4
:1003D0007047F8B5064600244768806800903046AC
:1003E000F56803E00099B847641C3046A847002828
:1003F000F8D12046F8BD754600F024F8AE46050059
:1004000069465346C008C000854618B020B5FFF7BE
:10041000B3FE60BC00274908B6460026C0C5C0C56B
:10042000C0C5C0C5C0C5C0C5C0C5C0C5403D4900E8
:100430008D46704710B50446C046C0462046FFF7BB
:100440008AFE10BD00487047CC01002001491820E9
:10045000ABBEFEE72600020070470000F8B5B54CC1
:1004600000251CE1B548B4490078095CFF2903D197
:10047000B3480278002A06D0B1480278002A05D095
:10048000FE2905D007E0AF490D701BE0AD4827E01D
:100490000278012AF7D00278022A17D00278032ABC
:1004A00017D00378A74A1678B3427DD20378064660
:1004B000032B79D9A548A44A0378D1540178491C63
:1004C000017030460178491C01700AE0AA29DAD08F
:1004D00006E09C4A091D11700178491C01709B4877
:1004E00005709B48007800287ED097480178994A8B
:1004F00011704178984AC90911704178974A4906A4
:10050000C90F11704178964A8906C90F1170417858
:10051000944AC906C90F11704178934A0907C90F57
:1005200011704178914A4907C90F11704178904A7A
:100530008907C90F117041788E4AC907C90F117018
:1005400081788D4AC909117081788C4A4906C90F92
:10055000117081788A4A8906C90F11708178894A99
:10056000C906C90F11708178874A0907C90F117030
:100570008178864A4907490F1170C178844A117001
:100580000179844A0907090F11700179824A090922
:1005900011704179814A0907090F11704179804A28
:1005A00009091170817900E08BE07E4A1170C179F0
:1005B0007D4A0907090F1170C1797C4A0909117038
:1005C000017A7B4AC9091170017A7A4A4906C90F32
:1005D0001170007A78498006C00F087000202554F9
:1005E000401CC0B20A2800E051E0F8D3FF20207080
:1005F000FE206070AA20A0700820E0706F4F704B42
:1006000006202279395C0A432271A1791E5C3143AC
:10061000A171002803D0520022714900A171401E2F
:10062000C0B20628EDD920796071A079E0716548E3
:1006300000786549C0010978890108436349097850
:100640004901084362490978090108436149097869
:10065000C900084360490978890008435F4909785F
:10066000490008435E4909780843207260725E4879
:100670005C49006801F03EFBFFF776FEA07278202F
:10068000E07225730D2001F087F8314805702B4882
:100690000178491C01700178C82900D305705348BE
:1006A0008068C821091A25480278914200D0D9E60D
:1006B0004F480278012189034E48012A38D98161C7
:1006C000F8BD1F4803781F480078834225D11D4B91
:1006D0001878002821D01D48007809281DD11A4F0C
:1006E0003A78012003E03E5C7240401C80B21E78E4
:1006F000B042F8D3914210D11548012101703E4912
:100700000878401C08703A480178491C017001784B
:10071000022900D90570394805800D480078002865
:1007200003D137490888401C088005480570ADE6AC
:100730008162F8BDB4000020E60000200A0000201D
:100740000B0000200C000020AE0100204E00002015
:100750004D000020420000206600002064000020C0
:10076000120000205E0000205F00002060000020DA
:1007700061000020620000200F00002065000020C2
:100780001000002011000020670000206A000020F7
:1007900023000020410000206800002040000020CD
:1007A0003F000020690000206C0000206B0000204A
:1007B000630000205C0000205D0000206D00002030
:1007C00073000020540000205A0000205B0000202D
:1007D000550000205600002057000020580000203F
:1007E0005900002000002042440000204000024048
:1007F0004F000020000800500D00002020000020C5
:100800005000002010B50C48002101630B4A946B86
:1008100001231C4394630A4C3322A260094A5160AD
:10082000094AC263094A8263416340210163016B43
:100830001943016310BD0000000002400010024097
:10084000000802404009024028380140B40000205E
:1008500010B50C48002141600B4A946B01231C43E6
:1008600094630A4C3222E260094A516009490161ED
:100870000949C160C8218160084941604168194344
:10088000416010BD400002400010024000080240DC
:1008900040090240E600002024380140A02000006A
:1008A00072B6FEE770B5044600F0C2F80546601C5B
:1008B00002D004480078241800F0BAF8401BA04287
:1008C000FAD370BD7C000020F0B5002303249AE029
:1008D0002A4601259D402A407ED00E79B607B60FE4
:1008E000012E01D0022E16D186682746B4465E003E
:1008F000B646B7406646BE43B446CF687646B74074
:100900006646374387604668AE430D79ED06ED0FC6
:100910009D40354345600D79ED43AD0708D0C5686E
:100920005F002646BE40B5438E68BE402E43C6607B
:100930000D79AD07AD0F022D0ED1DD08AD002D18DC
:10094000AC462D6A5E07F60E0F27B740BD430F6910
:10095000B7402F4365462F6205685F002646BE40BC
:10096000B5430E79B607B60FBE402E4306604D68FC
:10097000AD03AD0F46D09E08264DB6007519AC46A6
:100980002D6E9E07F60E0F27B740BD4305273F0784
:10099000B84201D100270FE01F4FB84201D1012713
:1009A0000AE01E4FB84201D1022705E01C4FB842B1
:1009B00001D1032700E00527B7402F43154D6646B8
:1009C00037662D684E689543F60200D51543114FE2
:1009D0003D607D68954300E014E04E68B60200D5A6
:1009E00015437D600B4D80356E684F689643BF039D
:1009F00000D516436E602E684F689643FF0300D5FE
:100A000016432E605B1C0A681546DA4000D05FE78B
:100A1000F0BD000000180240000400500008005023
:100A2000000C00500069084000D001207047000011
:100A300001488068704700007C00002002488168FF
:100A400002788918816070477C00002010B5084842
:100A500000240168821511430160032000F00AF8A8
:100A6000002801D0012401E000F028F8204610BD44
:100A70000020024070B50F4E002431780546002951
:100A800015D07D20C000FFF7BFFB01460A48006873
:100A9000FFF7BAFB00F030FB002808D1042D06D286
:100AA00000222946401E00F01FF8756000E0012476
:100AB000204670BD7C0000208800002008B5094851
:100AC0000168012211430160006810400090054850
:100AD0004038C26B01040A43C263C06B08400090F7
:100AE00008BD00004010024010B501F01DF810BD17
:100AF00010B50F4C2168032252029143014321603B
:100B0000C11FFF39FA390ED10A480621006848434F
:100B10000949FFF779FB401C02E0002805D0401E80
:100B200061694905F9D4002010BD032010BD000003
:100B3000007000408800002040420F00F8B50F46CA
:100B4000060043D04D4D28684007400FB84213D2ED
:100B50002868C008C00038432860FFF769FF0446D2
:100B600005E0FFF765FF011B4548814261D8286811
:100B70004007400FB842F4D13068424C81070DD590
:100B8000400704D5A068072109030843A060A068B6
:100B90000F2109028843B1680843A0603078C0077C
:100BA00032D0706801280AD002280BD000280FD05C
:100BB0003449403103280ED0C969890704E021680F
:100BC000890301E021688901002906DB0120F8BDC5
:100BD00021684905F8E7096AEFE7A168C908C90073
:100BE0000143A160FFF724FF009006E0FFF720FF1C
:100BF0000099411A224881421BD8A0683821084038
:100C00007168C9008842F1D128684007400FB84296
:100C100017D91A480168C908C90039430160FFF7AC
:100C200007FF054607E0FFF703FF411B1448814219
:100C300001D90320F8BD114800684007400FB842B1
:100C4000F1D13078400706D5A06807210903884311
:100C5000F1680843A06000F01DF8A1683C228909F2
:100C60001140094A515CC906C90EC84007490860CD
:100C700007480068FFF7FEFEF8BD000000200240B4
:100C80008813000000100240A41D00088800002006
:100C90008000002010B5204CA068204A8006400F3C
:100CA00016D0A0688006410F501001290FD0A1680E
:100CB0008906490F022912D0A0688006400F042837
:100CC00023D0A0688006400F032821D0002010BD4B
:100CD000206801218004400F8140104612E0E16845
:100CE0008B07E1689B0F4906490F491C032B00D075
:100CF0001046FFF789FAE1684904490E4843E16864
:100D0000490F491CFFF780FA10BD0120C00310BD38
:100D10007D20000210BD0000001002400024F400FD
:100D2000F8B504007ED020783827C007E94D0028A8
:100D300046D0A868E96838408907890F102802D092
:100D400008280BD001E0032908D0012062680004C4
:100D500082420AD129680143296015E0286880038E
:100D60002ED560680028DDD02AE0052301211B0470
:100D700089049A422A6802D10A432A60EAE7824338
:100D80002A60286888432860606800280CD0FFF734
:100D90004FFE064604E0FFF74BFE801B642873D825
:100DA00028688003F7D50BE0FFF742FE064604E013
:100DB000FFF73EFE801B6428F1D828688003F7D433
:100DC0002078800769D5A868E96838408A07072134
:100DD000920FC902102802D0002813D001E0022A85
:100DE00010D0E068002846D028688843216908436D
:100DF00028602868FF21013108432860FFF718FEAA
:100E000006462CE02A68520502D5E268002A89D0FD
:100E10006A687F231B029A4363691B021A436A6054
:100E2000002800E08DE00ED128688843216908433E
:100E30002860286801218004400F8140A648FFF700
:100E4000E3F9A6490860A6480068FFF713FE0028EA
:100E500077D122E0FFF7ECFD801B02289FD828689D
:100E60004005F7D568687F21090288436169090256
:100E70000843686011E02968FF2001308143296040
:100E8000FFF7D6FD064605E098E0FFF7D1FD801B91
:100E9000022884D828684005F7D42078914E0007AE
:100EA0002ED5A8688006400F03280AD0A069002824
:100EB000306A16D0012108433062FFF7B9FD0746BA
:100EC0000BE0306A80071BD5A06900289FD017E08F
:100ED000FFF7AEFDC01B022870D8306A8007F7D537
:100EE0000EE0400840003062FFF7A2FD074604E034
:100EF000FFF79EFDC01B022860D8306A8007F7D438
:100F0000207840076CD5A86800278006400F042889
:100F100018D0E86BC00008D4E96B0120000701433A
:100F2000E963E96B0140012700916F480168C90539
:100F300019D40168821511430160FFF779FD009013
:100F40000DE083E0F06980074AD5A06800287DD0D5
:100F500046E0FFF76DFD0099401A02282ED862483E
:100F60000068C005F5D5A168012910D00420052925
:100F7000F16911D049084900F161F1698143F161DA
:100F8000A068002816D0FFF753FD00900EE0F0692E
:100F900001210843F061F3E70143F161F7E7FFF74F
:100FA00047FD0099411A5148814265D8F069800790
:100FB000F5D50EE0FFF73CFD009007E05CE0FFF7A1
:100FC00037FD0099411A4948814255D8F069800798
:100FD000F5D4002F04D0E96B012000078143E963B9
:100FE000E069002873D0A9688906490F02294DD00D
:100FF000012636060228286805D0B0432860FFF78E
:1010000017FD04463AE0B0432860FFF711FD07469C
:1010100004E0FFF70DFDC01B02282DD828688001D1
:10102000F7D4616A206AA26A0843E16A1202114396
:101030000843216B0843E9682D4A11400843E860E2
:10104000286830432860E868012100E03DE0090796
:101050000843E860FFF7ECFC044604E0FFF7E8FC17
:10106000001B022808D828688001F7D52FE0FFF779
:10107000DFFC001B022801D90320F8BD286880018D
:10108000F5D4E8681B490840E86020E00128F4D066
:10109000E868226A8107890F914216D17021626A3D
:1010A0000140914211D17F21A26A0902014012023E
:1010B00091420AD11F214904E26A0140914204D1C0
:1010C000400F216B4007884201D00120F8BD00206D
:1010D000F8BD0000001002400024F4008800002049
:1010E0008000002040100240007000408813000083
:1010F0008C80C11FFCFFFEEF094910B5401E8842DD
:1011000001D9012010BD074C60610321081F00F0C8
:101110000BFD0020A06107202061002010BD000011
:10112000FFFFFF0000E000E0FEE70000F8B5052546
:101130002D0710212846FFF775FC002800D001205C
:10114000484F387020212846FFF76CFC002800D05B
:101150000120454C207040212E462846FFF762FCB6
:10116000002800D00120414D287080213046FFF733
:1011700059FC002800D001203D4E307001213D482F
:10118000FFF750FC002801D0012100E000213A487F
:1011900001703F78012100223948002F374B077931
:1011A00006D0142F02D203795B1C05E0197006E00B
:1011B000002F03D003795B1E037100E01A702478BE
:1011C000304B002C447906D0142C02D243795B1C9E
:1011D00005E0197006E0002C03D043795B1E4371D3
:1011E00000E01A702C78284B002C847906D0142C3F
:1011F00002D283795B1C05E0197006E0002C03D055
:1012000083795B1E837100E01A7034781F4B002CC9
:10121000C47906D0142C02D2C3795B1C05E0197086
:1012200006E0002C03D0C3795B1EC37100E01A7086
:10123000114B1C78164B002C07D0C178142902D210
:10124000C178491C06E01A7007E0C278002A03D072
:10125000C178491EC17000E0197018780D490870F6
:10126000F8BD000048000020490000204A0000208E
:101270004B000020000400504C00002056000020CD
:1012800036000020570000205800002059000020A0
:101290005A0000205B000020F0B5CC4801780527FB
:1012A0000126CB483F07CB4D002400291BD0CA495B
:1012B0000978027891421FD00078002812D0C448E3
:1012C0000178642919D0017882295AD001787229CD
:1012D00059D0017871295FD001786F2964D00078E6
:1012E000782869D091E0BD490E70BD490C8004702A
:1012F000B948047000F05AFA8BE0BA4A002011781D
:10130000002912D0117804290FD23869800702D43D
:101310002E7000F04BFA1078401DC1B2002000F092
:1013200095F9B149322008700120B04A117800299E
:101330001FD0117837291CD23969890704D40028B5
:1013400002D12E7000F032FA1178082901D910313B
:10135000C9B2222901D8012004E0362904D8223953
:10136000C9B2022000F072F9A1490978002904D11C
:101370004BE09F490978002901D003210AE00028A9
:1013800043D1002106E03869800702D42E7000F0B6
:101390000DFA0121002036E03869800702D42E7052
:1013A00000F004FA0221F5E73869800702D42E70B4
:1013B00000F0FCF90421EDE700208F4A8D4911600F
:1013C0008E4909780F2809D2401CC0B204E08C4B2A
:1013D0009B5C8B42F1D0521C0A2AF8DB7829ECD8AE
:1013E0008848874A0378D1540278521C02700278E8
:1013F000092A00D90470032003E01439401CC9B243
:10140000C0B21429F9D800F021F971480178724866
:1014100001707D4801787D4803787E227C4899429E
:1014200050D07C49097800294CD17B4909781E2984
:1014300048D96B490B8879498B4243D97349784B1A
:101440000F78DF5D774B1F700B785B1C0B70744B54
:101450000F78DF5D744B1F700F787F1C0F70097859
:10146000092901D969490C701978002901D0694905
:101470000E706E490C7068490C702978002902D1F1
:101480001978002903D15549097800290FD053490B
:101490000C7002700421417038218170C4703C21AD
:1014A0000171EF214171062061490870F0BD0270A1
:1014B00003214170192181701A21C170EF2101713E
:1014C0000520F1E7534909780029EFD0524B1978EC
:1014D0002329EBD9052109070969890706D4297849
:1014E000002903D1514909780329DFD13C490E88ED
:1014F0004A498E42DAD94D490E78002E2DD00E7809
:10150000012E2CD00E784B4F022E46D0087803289F
:10151000CCD10520000702699307474A02D53B88D2
:101520009342C3D90C703B490C702978002900D034
:101530002C700069810741480DD5398891420AD93C
:101540002549FF220A700178491C0170017803299E
:10155000ACD93B490C800470F0BD1C7033E0314DB8
:101560002D78032D01D2374D00E0374D2D786E00D8
:10157000AD19EDB21E2D00D91E2502700422427055
:10158000312282703522C5706A400271EF224271A9
:101590001C70274A0620107015E002700522427068
:1015A000422282701F4A12781F4DC2702D78472642
:1015B0006A40564005714671EF2282711C701C48CA
:1015C000072202703C800878401C6EE7060000206D
:1015D0002300002007000020240000200500002038
:1015E000140000206A00002025000020690000206F
:1015F00067000020AAAA000000300040260000205A
:10160000AA0000202D000020280000202900002032
:101610008C0000202200002030000020F60900008D
:10162000A00000202B0000202C0000202A00002019
:10163000040000202E000020580200002700002097
:10164000160000206C0000206B00002010B50A4A34
:10165000084B147818551078401C107010781954E5
:101660001078401C10701078092801D900201070E3
:1016700010BD0000A000002028000020F0B587B0B9
:1016800014216846FEF7BEFD3E48416B04263143F7
:101690004163416B31400591416B01252943416311
:1016A000416B29400591416B022739434163416BEE
:1016B00039400591426B08210A434263406B002484
:1016C00008400590C8020090029469460195039471
:1016D0002D48FFF7F9F8032003900520009569468F
:1016E000019502940007FFF7EFF80520694600070F
:1016F00000970194FFF7E8F803200390052069465E
:101700000096019502940007FFF7DEF81020009084
:101710000520694601940007FFF7D6F820200090C5
:101720000520694601940007FFF7CEF8402000909D
:101730000520694601940007FFF7C6F88020009055
:101740000520694601940007FFF7BEF869460F4877
:1017500000950194FFF7B8F8E80200900520029484
:101760006946019503940007FFF7AEF8280300903F
:10177000052002946946019503940007FFF7A4F839
:1017800007B0F0BD001002400008005000040050F7
:10179000FEE7704770470000034900220A63486370
:1017A0004120086370470000000002400449002007
:1017B00008700449087004490870044908707047AB
:1017C0002800002029000020220000202A000020FC
:1017D00010B5FFF733F910BD30B591B0342168462C
:1017E000FEF710FD002501200D950E950F95400286
:1017F0001095FFF77DF90224E0010390009440204A
:10180000059008200A9080030B900794000304952C
:101810000C90099508946846FFF782FA002801D0D9
:10182000FFF73EF807200DA931C102210DA8109540
:10183000FFF784F9002801D0FFF732F811B030BD6E
:101840007047000070B5314800210161304A1088AE
:10185000401C10802F4A1088401C10802E4A10888F
:10186000401C10802D4A1088401C10802C4A108883
:10187000401C10802B480278521C02700378012211
:10188000782B00D9027028480378642B02D20378A1
:101890005B1C0370254B5D6B254C26882548B542A3
:1018A00003D00170586B208005E00378642B02D2CE
:1018B00003785B1C037020480578FF241F4BF53428
:1018C0001F48002D02D10588A54207D20288A242F6
:1018D00002D20288521C0280197008E0194801885F
:1018E000194CA14203D20188491C01801A70174883
:1018F0000078032808D1164801887D221201914200
:1019000002D20188491C018070BD00000020004007
:101910003200002018000020340000201A000020AF
:101920001C000020260000203000002000000240A3
:10193000520000203E00002064000020060000202D
:101940001600002014000020881300002A00002048
:101950002E00002070B50B4801680122D20311430C
:101960000160094C0020A06220603F20A06207486F
:10197000E0620125E560132000F0CAF820682843E2
:10198000206070BD4010024000200040E7030000CE
:10199000F0B5274800210161264B1C780520012560
:1019A00004220007002C34D0234C217023490C78EA
:1019B000002C03D00B785B1E0B7012E01E78204CBD
:1019C0002778BE420AD91F4B26789E5D1E4B1E709B
:1019D00009230B7023785B1C237002E000261E7025
:1019E00026700C78194B092C02D382621D70F0BD51
:1019F0000978002906D0144909781C78214203D0BF
:101A0000826102E08261F0BD826218784000187045
:101A1000F0BD0F490B78002B01D0826100E082629B
:101A20000978002901D08561F0BD8562F0BD000014
:101A30000048014004000020300000200000002089
:101A4000030000208C000020010000200200002084
:101A50000600002070B50B48016801229204114372
:101A60000160094C0020A0622060A0620748E0628B
:101A70000125E560162000F04BF82068284320601F
:101A800070BD000040100240004801400A1A0000EA
:101A90001B48416B0122114341631A4801680F231F
:101AA0001B03994301600168C31319430160016A74
:101AB0000F231B0599430162016A0162016A1B0140
:101AC00099430162016A01620D4840300168930345
:101AD000194301600D480C49C160002101600C21CF
:101AE0000160816843239B011943816000218314B5
:101AF00000BF491C9942FBDB01681143016070473C
:101B000000100240000400500B1A00000038014091
:101B1000002805DBC106C90E012088400149086084
:101B20007047000000E100E08307FF22DB0E9A40CF
:101B30008907090E9940002808DB830809489B00A3
:101B40001B18186890430843186070470007000F7F
:101B50000838830804489B001B18D8699043084341
:101B6000D861704700E400E000ED00E0FEF76EFF92
:101B7000FFF732FE012605252D07AE62514C267077
:101B80000420A862FFF77AFDFFF764FFFFF7E2FE8B
:101B9000FFF77EFFFEF736FEFEF75AFEFF20F53018
:101BA00020824000E0816670267007210020FFF748
:101BB0004DFD03210020FFF749FD444F42483860A6
:101BC0004348386000267E604248B8600A20FEF72D
:101BD00069FEA07A0028404801D0A86100E0A86210
:101BE000607A00283D4801D0A86100E0A8623C4826
:101BF0003860608A04281DD9608A401F6082608B2B
:101C0000401C6083608BFF219131884210D9FFF71F
:101C10003FFF34488068C821081A20716671A67198
:101C2000FEF7F0FDFEF714FE0520FEF73BFEFBE796
:101C3000FFF77CFAA08A632828D92BA12C48FEF74D
:101C4000ADFAFFF7A9FDA08A6438A082E07A0028E7
:101C50000CD0207B002805D0A078022802D2A078E2
:101C6000401CA070207B002804D00AE00120E07016
:101C7000A6700BE0A078042803D2A078401CA070C6
:101C800004E0A670E07801214840E070E08A114944
:101C9000B43188420AD9E18A7D20C000081AE08266
:101CA000208B401C2083E0792072E671208B3B283A
:101CB00002D9208B3C382083FEF7D0FBFFF7ECFAEB
:101CC00084E7000006000020CCCC0000003000407B
:101CD000555500003303000000100000000800000C
:101CE000AAAA0000400002406B6176650000000077
:101CF000B400002070B5420064414B005C41120EFC
:101D000039D01B0E38D0FF2A3CD0FF2B3AD04002EE
:101D10004902400A490A060045184E43000A090ACA
:101D2000D2184843ED017F3A0104731A4019190C87
:101D30004318990F04D001215B0849075B1A521C14
:101D4000D80904D3401CF50301D19D0607D0FF2A12
:101D500008D2D50506D0E4072043401970BD0125FF
:101D6000A843F4E7002A01DCE00770BD2402FF204D
:101D70002043C00570BD1B0EFF2A03D0FF2B01D0EE
:101D8000E00770BDFF2645003606B54206D84D0077
:101D9000B54203D8D218FF2A00D0E7E7004870BD4B
:101DA0000000C07F000000000000000000000000F4
:101DB0000000000000000000000000000000000023
:101DC000000000000100000002000000030000000D
:101DD00004000000060000000700000008000000EA
:101DE00009000000041E0008000000208C00000014
:101DF00004010008901E00088C000020A4070000C9
:101E000020010008000000000000000000000000A9
:101E100000000000000000000000000000000000C2
:101E200000000000000000000000010000000000B1
:101E300000000000000000000000000000000000A2
:101E4000000000FFFFFF0000666686400000000003
:101E50000000000000000000000000000000000082
:101E6000000000000000000000000000000000076B
:101E7000080000000000000000000000000000005A
:101E80000100000004000000000000000024F40035
:04000005080000C12E
:00000001FF
